{
  "address": "0xfb221080cD80e2251c2e448C49992c7404cAC56d",
  "abi": [
    {
      "inputs": [
        {
          "internalType": "address",
          "name": "_addressProvider",
          "type": "address"
        },
        {
          "internalType": "address",
          "name": "dexAddress",
          "type": "address"
        }
      ],
      "stateMutability": "nonpayable",
      "type": "constructor"
    },
    {
      "inputs": [],
      "name": "ADDRESSES_PROVIDER",
      "outputs": [
        {
          "internalType": "contract IPoolAddressesProvider",
          "name": "",
          "type": "address"
        }
      ],
      "stateMutability": "view",
      "type": "function"
    },
    {
      "inputs": [],
      "name": "POOL",
      "outputs": [
        {
          "internalType": "contract IPool",
          "name": "",
          "type": "address"
        }
      ],
      "stateMutability": "view",
      "type": "function"
    },
    {
      "inputs": [
        {
          "internalType": "address",
          "name": "asset",
          "type": "address"
        },
        {
          "internalType": "uint256",
          "name": "amount",
          "type": "uint256"
        },
        {
          "internalType": "uint256",
          "name": "premium",
          "type": "uint256"
        },
        {
          "internalType": "address",
          "name": "initiator",
          "type": "address"
        },
        {
          "internalType": "bytes",
          "name": "params",
          "type": "bytes"
        }
      ],
      "name": "executeOperation",
      "outputs": [
        {
          "internalType": "bool",
          "name": "",
          "type": "bool"
        }
      ],
      "stateMutability": "nonpayable",
      "type": "function"
    },
    {
      "inputs": [
        {
          "internalType": "address",
          "name": "_tokenAddress",
          "type": "address"
        }
      ],
      "name": "getBalance",
      "outputs": [
        {
          "internalType": "uint256",
          "name": "",
          "type": "uint256"
        }
      ],
      "stateMutability": "view",
      "type": "function"
    },
    {
      "inputs": [
        {
          "internalType": "address",
          "name": "_token",
          "type": "address"
        },
        {
          "internalType": "uint256",
          "name": "_amount",
          "type": "uint256"
        }
      ],
      "name": "requestFlashLoan",
      "outputs": [],
      "stateMutability": "nonpayable",
      "type": "function"
    },
    {
      "inputs": [
        {
          "internalType": "address",
          "name": "_tokenAddress",
          "type": "address"
        }
      ],
      "name": "withdraw",
      "outputs": [],
      "stateMutability": "nonpayable",
      "type": "function"
    },
    {
      "stateMutability": "payable",
      "type": "receive"
    }
  ],
  "transactionHash": "0x425f4f2defa212cc38ec79ef059f134e63adadd366d17848d3b97d55240c6f69",
  "args": [
    "0xc4dCB5126a3AfEd129BC3668Ea19285A9f56D15D",
    "0x783E07CbC347F10D78c1e43f46C8C6631eE7D3C5"
  ],
  "numDeployments": 3,
  "solcInputHash": "ba9cbfad56e3ca6a2e888f281e4eebda",
  "bytecode": "0x6101406040523480156200001257600080fd5b5060405162001464380380620014648339818101604052810190620000389190620002bf565b818073ffffffffffffffffffffffffffffffffffffffff1660808173ffffffffffffffffffffffffffffffffffffffff16815250508073ffffffffffffffffffffffffffffffffffffffff1663026b1d5f6040518163ffffffff1660e01b8152600401602060405180830381865afa158015620000b9573d6000803e3d6000fd5b505050506040513d601f19601f82011682018060405250810190620000df919062000306565b73ffffffffffffffffffffffffffffffffffffffff1660a08173ffffffffffffffffffffffffffffffffffffffff168152505050336000806101000a81548173ffffffffffffffffffffffffffffffffffffffff021916908373ffffffffffffffffffffffffffffffffffffffff16021790555073df1742fe5b0bfc12331d8eaec6b478dfdbd3146473ffffffffffffffffffffffffffffffffffffffff1660e08173ffffffffffffffffffffffffffffffffffffffff168152505073a2025b15a1757311bfd68cb14eaefcc237af5b4373ffffffffffffffffffffffffffffffffffffffff166101008173ffffffffffffffffffffffffffffffffffffffff16815250508073ffffffffffffffffffffffffffffffffffffffff1660c08173ffffffffffffffffffffffffffffffffffffffff16815250508073ffffffffffffffffffffffffffffffffffffffff166101208173ffffffffffffffffffffffffffffffffffffffff1681525050505062000338565b600080fd5b600073ffffffffffffffffffffffffffffffffffffffff82169050919050565b600062000287826200025a565b9050919050565b62000299816200027a565b8114620002a557600080fd5b50565b600081519050620002b9816200028e565b92915050565b60008060408385031215620002d957620002d862000255565b5b6000620002e985828601620002a8565b9250506020620002fc85828601620002a8565b9150509250929050565b6000602082840312156200031f576200031e62000255565b5b60006200032f84828501620002a8565b91505092915050565b60805160a05160c05160e05161010051610120516110a4620003c06000396000818161026e015281816102f9015281816104d101526105f5015260006101af015260008181610379015281816103d6015261050d0152600081816101eb01526103b50152600081816106a1015281816108c2015261090b0152600061018901526110a46000f3fe6080604052600436106100595760003560e01c80630542975c146100655780631b11d0ff1461009057806351cff8d9146100cd5780637535d246146100f6578063d54ba95414610121578063f8b2cb4f1461014a57610060565b3661006057005b600080fd5b34801561007157600080fd5b5061007a610187565b6040516100879190610aa7565b60405180910390f35b34801561009c57600080fd5b506100b760048036038101906100b29190610ba5565b6101ab565b6040516100c49190610c5a565b60405180910390f35b3480156100d957600080fd5b506100f460048036038101906100ef9190610c75565b610731565b005b34801561010257600080fd5b5061010b6108c0565b6040516101189190610cc3565b60405180910390f35b34801561012d57600080fd5b5061014860048036038101906101439190610cde565b6108e4565b005b34801561015657600080fd5b50610171600480360381019061016c9190610c75565b6109a5565b60405161017e9190610d2d565b60405180910390f35b7f000000000000000000000000000000000000000000000000000000000000000081565b60007f000000000000000000000000000000000000000000000000000000000000000073ffffffffffffffffffffffffffffffffffffffff1663095ea7b37f0000000000000000000000000000000000000000000000000000000000000000886040518363ffffffff1660e01b8152600401610228929190610d57565b6020604051808303816000875af1158015610247573d6000803e3d6000fd5b505050506040513d601f19601f8201168201806040525081019061026b9190610dac565b507f000000000000000000000000000000000000000000000000000000000000000073ffffffffffffffffffffffffffffffffffffffff1663f688bcfb876040518263ffffffff1660e01b81526004016102c59190610d2d565b600060405180830381600087803b1580156102df57600080fd5b505af11580156102f3573d6000803e3d6000fd5b505050507f000000000000000000000000000000000000000000000000000000000000000073ffffffffffffffffffffffffffffffffffffffff166305abf9046040518163ffffffff1660e01b8152600401600060405180830381600087803b15801561035f57600080fd5b505af1158015610373573d6000803e3d6000fd5b505050507f000000000000000000000000000000000000000000000000000000000000000073ffffffffffffffffffffffffffffffffffffffff1663095ea7b37f00000000000000000000000000000000000000000000000000000000000000007f000000000000000000000000000000000000000000000000000000000000000073ffffffffffffffffffffffffffffffffffffffff166370a08231306040518263ffffffff1660e01b815260040161042d9190610dd9565b602060405180830381865afa15801561044a573d6000803e3d6000fd5b505050506040513d601f19601f8201168201806040525081019061046e9190610e09565b6040518363ffffffff1660e01b815260040161048b929190610d57565b6020604051808303816000875af11580156104aa573d6000803e3d6000fd5b505050506040513d601f19601f820116820180604052508101906104ce9190610dac565b507f000000000000000000000000000000000000000000000000000000000000000073ffffffffffffffffffffffffffffffffffffffff1663365833e17f000000000000000000000000000000000000000000000000000000000000000073ffffffffffffffffffffffffffffffffffffffff166370a08231306040518263ffffffff1660e01b81526004016105649190610dd9565b602060405180830381865afa158015610581573d6000803e3d6000fd5b505050506040513d601f19601f820116820180604052508101906105a59190610e09565b6040518263ffffffff1660e01b81526004016105c19190610d2d565b600060405180830381600087803b1580156105db57600080fd5b505af11580156105ef573d6000803e3d6000fd5b505050507f000000000000000000000000000000000000000000000000000000000000000073ffffffffffffffffffffffffffffffffffffffff1663156029916040518163ffffffff1660e01b8152600401600060405180830381600087803b15801561065b57600080fd5b505af115801561066f573d6000803e3d6000fd5b50505050600085876106819190610e65565b90508773ffffffffffffffffffffffffffffffffffffffff1663095ea7b37f0000000000000000000000000000000000000000000000000000000000000000836040518363ffffffff1660e01b81526004016106de929190610d57565b6020604051808303816000875af11580156106fd573d6000803e3d6000fd5b505050506040513d601f19601f820116820180604052508101906107219190610dac565b5060019150509695505050505050565b60008054906101000a900473ffffffffffffffffffffffffffffffffffffffff1673ffffffffffffffffffffffffffffffffffffffff163373ffffffffffffffffffffffffffffffffffffffff16146107bf576040517f08c379a00000000000000000000000000000000000000000000000000000000081526004016107b690610f3e565b60405180910390fd5b60008190508073ffffffffffffffffffffffffffffffffffffffff1663a9059cbb338373ffffffffffffffffffffffffffffffffffffffff166370a08231306040518263ffffffff1660e01b815260040161081a9190610dd9565b602060405180830381865afa158015610837573d6000803e3d6000fd5b505050506040513d601f19601f8201168201806040525081019061085b9190610e09565b6040518363ffffffff1660e01b8152600401610878929190610d57565b6020604051808303816000875af1158015610897573d6000803e3d6000fd5b505050506040513d601f19601f820116820180604052508101906108bb9190610dac565b505050565b7f000000000000000000000000000000000000000000000000000000000000000081565b600030905060008390506000839050600060405180602001604052806000815250905060007f000000000000000000000000000000000000000000000000000000000000000073ffffffffffffffffffffffffffffffffffffffff166342b0b77c86868686866040518663ffffffff1660e01b815260040161096a959493929190611014565b600060405180830381600087803b15801561098457600080fd5b505af1158015610998573d6000803e3d6000fd5b5050505050505050505050565b60008173ffffffffffffffffffffffffffffffffffffffff166370a08231306040518263ffffffff1660e01b81526004016109e09190610dd9565b602060405180830381865afa1580156109fd573d6000803e3d6000fd5b505050506040513d601f19601f82011682018060405250810190610a219190610e09565b9050919050565b600073ffffffffffffffffffffffffffffffffffffffff82169050919050565b6000819050919050565b6000610a6d610a68610a6384610a28565b610a48565b610a28565b9050919050565b6000610a7f82610a52565b9050919050565b6000610a9182610a74565b9050919050565b610aa181610a86565b82525050565b6000602082019050610abc6000830184610a98565b92915050565b600080fd5b600080fd5b6000610ad782610a28565b9050919050565b610ae781610acc565b8114610af257600080fd5b50565b600081359050610b0481610ade565b92915050565b6000819050919050565b610b1d81610b0a565b8114610b2857600080fd5b50565b600081359050610b3a81610b14565b92915050565b600080fd5b600080fd5b600080fd5b60008083601f840112610b6557610b64610b40565b5b8235905067ffffffffffffffff811115610b8257610b81610b45565b5b602083019150836001820283011115610b9e57610b9d610b4a565b5b9250929050565b60008060008060008060a08789031215610bc257610bc1610ac2565b5b6000610bd089828a01610af5565b9650506020610be189828a01610b2b565b9550506040610bf289828a01610b2b565b9450506060610c0389828a01610af5565b935050608087013567ffffffffffffffff811115610c2457610c23610ac7565b5b610c3089828a01610b4f565b92509250509295509295509295565b60008115159050919050565b610c5481610c3f565b82525050565b6000602082019050610c6f6000830184610c4b565b92915050565b600060208284031215610c8b57610c8a610ac2565b5b6000610c9984828501610af5565b91505092915050565b6000610cad82610a74565b9050919050565b610cbd81610ca2565b82525050565b6000602082019050610cd86000830184610cb4565b92915050565b60008060408385031215610cf557610cf4610ac2565b5b6000610d0385828601610af5565b9250506020610d1485828601610b2b565b9150509250929050565b610d2781610b0a565b82525050565b6000602082019050610d426000830184610d1e565b92915050565b610d5181610acc565b82525050565b6000604082019050610d6c6000830185610d48565b610d796020830184610d1e565b9392505050565b610d8981610c3f565b8114610d9457600080fd5b50565b600081519050610da681610d80565b92915050565b600060208284031215610dc257610dc1610ac2565b5b6000610dd084828501610d97565b91505092915050565b6000602082019050610dee6000830184610d48565b92915050565b600081519050610e0381610b14565b92915050565b600060208284031215610e1f57610e1e610ac2565b5b6000610e2d84828501610df4565b91505092915050565b7f4e487b7100000000000000000000000000000000000000000000000000000000600052601160045260246000fd5b6000610e7082610b0a565b9150610e7b83610b0a565b9250827fffffffffffffffffffffffffffffffffffffffffffffffffffffffffffffffff03821115610eb057610eaf610e36565b5b828201905092915050565b600082825260208201905092915050565b7f4f6e6c792074686520636f6e7472616374206f776e65722063616e2063616c6c60008201527f20746869732066756e6374696f6e000000000000000000000000000000000000602082015250565b6000610f28602e83610ebb565b9150610f3382610ecc565b604082019050919050565b60006020820190508181036000830152610f5781610f1b565b9050919050565b600081519050919050565b600082825260208201905092915050565b60005b83811015610f98578082015181840152602081019050610f7d565b83811115610fa7576000848401525b50505050565b6000601f19601f8301169050919050565b6000610fc982610f5e565b610fd38185610f69565b9350610fe3818560208601610f7a565b610fec81610fad565b840191505092915050565b600061ffff82169050919050565b61100e81610ff7565b82525050565b600060a0820190506110296000830188610d48565b6110366020830187610d48565b6110436040830186610d1e565b81810360608301526110558185610fbe565b90506110646080830184611005565b969550505050505056fea26469706673582212209360eb8023fbf7179c91ab69a810873f747fbccbfb647a5c11a7ee7f9bf7a34664736f6c634300080a0033",
  "devdoc": {
    "kind": "dev",
    "methods": {},
    "version": 1
  },
  "userdoc": {
    "kind": "user",
    "methods": {
      "executeOperation(address,uint256,uint256,address,bytes)": {
        "notice": "This function is called after your contract has received the flash loaned amount"
      }
    },
    "version": 1
  },
  "storageLayout": {
    "storage": [
      {
        "astId": 1381,
        "contract": "contracts/FlashLoanArbitrage.sol:FlashLoanArbitrage",
        "label": "owner",
        "offset": 0,
        "slot": "0",
        "type": "t_address_payable"
      }
    ],
    "types": {
      "t_address_payable": {
        "encoding": "inplace",
        "label": "address payable",
        "numberOfBytes": "20"
      }
    }
  }
}